:020000040000FA
:1000000055200228A60183128601A21CA2092B20DA
:100010004F2011204F203120192049202320492032
:10002000022823082502031D16280800A30A2E20F3
:10003000112820082102031D202834204F20080009
:10004000A00A37201928A60924082302031D2928FD
:100050000800A303242883120614080083128614C0
:100060000800831206150800831286150800831203
:1000700006164920061249200800FA30A7000000A1
:10008000A70B3F280800FA30A8003D20A80B452800
:1000900008000430A9004320A90B4B2808000530B4
:1000A000AA004920AA0B512808001430A0002D30C6
:1000B000A1000030A3003230A4006E30A500A201E0
:0E00C000A6018316E030860083128601080038
:0200CE000034FC
:0200D0000034FA
:02400E00103F61
:00000001FF
